:020000040800F2
:100000007031002045010008D5260008351400088D
:10001000D126000879020008CD2F0008000000005A
:100020000000000000000000000000009929000806
:1000300081040008000000005D270008AD2A0008C8
:100040005F0100085F0100085F0100085F01000810
:100050005F0100085F0100085F0100085F01000800
:100060005F0100085F0100085F0100085F010008F0
:100070005F0100085F0100085F0100085F010008E0
:100080005F0100085F0100085F0100085F010008D0
:100090005F0100085F0100085F010008850F00088C
:1000A0005F0100085F0100085F0100085F010008B0
:1000B0005F0100085F0100085F0100085F010008A0
:1000C0005F0100085F0100085F0100085F01000890
:1000D0005F010008892B00085F010008112C00084F
:1000E0005F0100085F0100085F0100085F01000870
:1000F0005F0100085F0100085F0100085F01000860
:100100005F0100085F0100085F0100085F0100084F
:100110005F0100085F0100085F0100085F0100083F
:100120005F0100085F0100085F0100085F0100082F
:10013000DFF80CD000F06CF8004800479D34000850
:10014000703100200648804706480047FEE7FEE77A
:10015000FEE7FEE7FEE7FEE7FEE7FEE7FEE7FEE777
:10016000292B00083101000840EA01039B0703D056
:1001700009E008C9121F08C0042AFAD203E011F8E6
:10018000013B00F8013B521EF9D27047D2B201E0A8
:1001900000F8012B491EFBD270470022F6E710B58C
:1001A00013460A4604461946FFF7F0FF204610BDE5
:1001B00030B505462A460B4612F8010B13F8014BE1
:1001C00008B1A042F8D01CB1002802D06D1CF1E7A4
:1001D000284630BD421C10F8011B0029FBD1801AB3
:1001E000704730B50B46014600202022012409E06B
:1001F00021FA02F59D4205D303FA02F5491B04FAE0
:1002000002F52844151EA2F10102F1DC30BD000008
:10021000064C074D06E0E06840F0010394E8070053
:1002200098471034AC42F6D3FFF786FF8882000867
:10023000A882000808B50121042002F00BFB4FF44E
:100240008070ADF8000010208DF8030003208DF8B9
:1002500002006946014800F0E5FF08BD00080140C2
:1002600010B5FFF7E7FF4FF48071024801F0B7F8CF
:1002700010BD00000008014000BFFEE7074800680D
:1002800040F0807005490860002005494860084634
:10029000006840F00100086070470000FCED00E0DD
:1002A000001000E00148406870470000001000E0C6
:1002B00031B5002310480068104DB0FBF5F0009DEB
:1002C00000FB05F400BFFFF7EDFF024611E0FFF76A
:1002D000E9FF014691420CD0914202D9881A0344A9
:1002E00003E0C2F1FF30084403440A46A34200D3AE
:1002F00000E0ECE700BF38BD0000002040420F00E6
:1003000008B50121402002F0A5FA4020ADF8000018
:1003100010208DF8030003208DF802006946024882
:1003200000F080FF08BD00000018014010B5FFF785
:10033000E7FF4021014801F054F810BD00180140CA
:1003400008B54020ADF8000048208DF8030069464C
:10035000014800F067FF08BD0018014008B54020C3
:10036000ADF8000010208DF8030003208DF8020086
:100370006946024800F056FF08BD00000018014021
:1003800070B50025002424E000BF4021134801F08F
:100390001DF80028F9D02820FFF78AFF40210F48D8
:1003A00001F014F801280DD100BF40210B4801F0E5
:1003B0000DF80128F9D0C4F1070101208840C0B22E
:1003C000054304E0C4F10701012088408543601C17
:1003D000C4B2082CD8DB284670BD000000180140CC
:1003E00010B50446FFF7BAFF4021244800F0F7FF9C
:1003F00044F25060FFF75CFF4021204800F0F1FF1D
:100400001E20FFF755FFFFF79BFF40211B4800F020
:10041000DDFF70BB00BF4021184800F0D7FF002867
:10042000F9D000BF4021154800F0D0FF0128F9D0D5
:10043000FFF7A6FF2070FFF7A3FF6070FFF7A0FF94
:10044000A070FFF79DFFE070FFF79AFF2071FFF7A4
:1004500085FF4021094800F0C4FF207861780844F6
:10046000A1780844E17808442179884202D101202A
:1004700010BD01E00020FBE70020F9E70018014073
:100480007047000010B500244FF40071114800F0CF
:10049000A8FF11A002F03AFE1348FFF709FF15E08C
:1004A000214612A002F032FE4FF4FA73002215A189
:1004B00015A000F015FB28B1214614A002F026FE7D
:1004C000012010BD00F052FC601CC4B20A2CE7DB16
:1004D0000020F6E7000C01400D0A4154B2E2CAD4F4
:1004E0002E2E2E2E2E0D0A0080841E000D0A415441
:1004F000B2E2CAD4B4CECAFD2025642E2E2E2E2EF2
:100500002E0D0A004F4B0000415400000D0A4154CB
:10051000B2E2CAD4C6F4B6AFB3C9B9A62025642ED8
:100520002E2E2E2E2E0D0A0010B530A002F0EEFD5C
:1005300035A002F0EBFD4FF48071394800F051FF17
:1005400000BFFFF79FFF0028FBD000BF00F02CFB8F
:100550000028FBD033A002F0D9FD00BF012000F03D
:10056000C9FB0028FAD038A002F0D0FD00BF3DA0A2
:1005700000F0E4F80028FAD000BF00223DA140A01E
:1005800000F0B8F80028F8D040A002F0BFFD00BF8E
:10059000012000F025FB0028FAD042A002F0B6FDB1
:1005A00000BF47A248A1012000F042FC0028F8D07B
:1005B0001421474800F068FB43A3454A30A1454851
:1005C00002F0A4FD4448B0F800046FF30E00424965
:1005D000A1F800040846B0F8000420F40040A1F897
:1005E00000043EA002F092FD10BD00000D0AD5FDF2
:1005F000D4DAC5E4D6C32045535038323636202EDF
:100600002E2E2E2E2E0D0A000D0ACAB9C4DC20454E
:10061000535038323636202E2E2E2E2E2E0D0A0016
:10062000000C01400D0AD5FDD4DAC5E4D6C3B9A447
:10063000D7F7C4A3CABDCEAA204150202E2E2E2EFD
:100640002E2E0D0A000000000D0AD5FDD4DAB4B438
:10065000BDA857694669C8C8B5E3202E2E2E2E2E98
:100660002E0D0A003139322E3136382E312E3435E6
:100670000000000077696C64666972650000000024
:1006800042696E6768756F4C696E6B000D0AD4CA5B
:10069000D0EDB6E0C1ACBDD3202E2E2E2E2E2E0DC9
:1006A0000A0000000D0ABFAAC6F4B7FECEF1C6F7D5
:1006B000C4A3CABD202E2E2E2E2E2E0D0A00000001
:1006C0003138303000000000383030300000000099
:1006D000E21400207C810008E01000200D0AC5E42F
:1006E000D6C3204553503832363620CDEAB1CF0D2F
:1006F0000A00000070B5A0B004460D4616462B4611
:10070000224607A102A8009602F010FD4FF47A736A
:10071000002209A102A800F0E3F920B070BD00009A
:1007200041542B43575341503D222573222C2225FF
:1007300073222C312C2564004F4B000010B588B07B
:100740000446224608A1684602F0F0FC41F28833D4
:10075000002209A1684600F0C3F910B1012008B0D9
:1007600010BD0020FBE7000041542B43495041508D
:100770003D222573220000004F4B00002DE9F0417F
:1007800086B004460D4616461F469F48B0F8000442
:10079000C00B002871D0002240F225519B4802F086
:1007A000B8FA00209849B1F80014C1F30E01964A36
:1007B0005054114696A002F0A9FC98A19248FFF768
:1007C000F7FC99490860002866D008460068007A5E
:1007D000964908700846017895A002F097FC934866
:1007E0000078312804D0322819D0332846D12DE0A2
:1007F0008D480068807A8D49087008460078302856
:1008000002D0312808D103E000208A49087004E0B2
:1008100001208849087000E000BF00BF2FE0824837
:100820000068807A8149087008460078302802D034
:10083000312808D103E000207F49087004E001203E
:100840007D49087000E000BF00BF18E076480068EE
:10085000807A7649087008460078302802D031281E
:1008600008D103E000207549087004E001207349B5
:10087000087000E000BF00BF01E0C2E000BF00BFA1
:100880006E48007800906C4803786A4802786CA142
:10089000724802F04BFC87E071A15B48FFF788FCCF
:1008A0006149086030B308460068C07A5F49087043
:1008B00008460078302802D0312812D108E04FF4E1
:1008C00080716A4800F08BFD00206949087009E0DA
:1008D0004FF48071654800F084FD01206449087080
:1008E00000E000BF00BF6248027862A15B4802F0EE
:1008F0001DFC59E066A14448FFF75AFC4A490860CC
:1009000000B366A14048FFF753FC68490860C8B1CE
:10091000454800680968884246D2644800784249E0
:100920000978401A0C3062490870084602783E483F
:1009300001684A48FFF718FC002048495C4A1278D1
:10094000885431E05BA13048FFF732FC60B35E4869
:10095000FFF746FD464803785B4840785A490978D6
:10096000594AD278CDE90403CDE90221564880786E
:1009700032490978CDE900102F4803782D480278D4
:100980005249364802F0D2FB3948007802A9E0C14A
:1009900005904D484078CDE900044B480378C27873
:1009A00081784B4802F0B2FB4AA11748FFF700FCE0
:1009B0001D49086080B108460068407930384749D1
:1009C00008702648FFF706FC8046444803784246F4
:1009D0002249002000F0DEF90B48B0F800046FF364
:1009E0000E000949A1F800040846B0F8000420F4FC
:1009F0000040A1F80004012240F22551034802F012
:100A000088F906B0BDE8F081E01000200048004001
:100A100075634368203D25730A000000434D445F21
:100A20004C45445F00000000A4000020A20000200C
:100A300025630A009E0000209F000020A0000020E7
:100A4000434D445F4C45445F25645F25645F2564E6
:100A50005F454E444C45445F454E4400E21400203F
:100A6000434D445F42555A5A45525F0000080140C9
:100A7000A1000020434D445F42555A5A45525F251C
:100A8000645F454E4442555A5A45525F454E4400B4
:100A9000434D445F554152545F0000005F454E4452
:100AA000554152545F454E4400000000A80000200C
:100AB0009D000020434D445F524541445F414C4CF2
:100AC0005F454E4400000000AC0000203C8200085E
:100AD000EC8100082B4950442C0000009C000020B1
:100AE0002DE9F04106460C4615461F462848B0F849
:100AF00000046FF30E002649A1F80004324625A138
:100B0000264802F0A0F91CB915B90120BDE8F08112
:100B100023A002F0FBFA4FF47A7107FB01F0FFF714
:100B2000C7FB00201A49B1F80014C1F30E01184A9E
:100B3000505411461BA002F0E9FAB4B1ADB1214600
:100B40001348FFF735FB08B1012000E0002040B951
:100B500029460F48FFF72CFB08B1012000E00020D8
:100B600008B10120D2E70020D0E744B1214608486F
:100B7000FFF71EFB08B10120C8E70020C6E72946A1
:100B80000348FFF715FB08B10120BFE70020BDE7D0
:100B9000E010002025730D0A00000000004800400E
:100BA000686100002573000000B58BB006A101A8A4
:100BB00002F0BCFA4FF4FA73002208A101A8FFF773
:100BC0008FFF0BB000BD000041542B4357444843F6
:100BD000505F4355523D302C300000004F4B000019
:100BE00010B586B004460CB1012000E0002002469A
:100BF00006A101A802F09AFA4FF4FA73002207A1A5
:100C000001A8FFF76DFF06B010BD000041542B4353
:100C100049504D55583D2564000000004F4B0000E1
:100C200008B50121082001F015FE4FF48070ADF8E1
:100C3000000010208DF8030003208DF802006946A3
:100C4000074800F0EFFA0121082001F003FE4FF4FD
:100C50000070ADF800006946014800F0E3FA08BDF5
:100C6000000C014010B5FFF7DBFF00F029F94FF44D
:100C70000071044800F0B5FB4FF48071014800F0AA
:100C8000AEFB10BD000C01402DE9F04105460F46BA
:100C90004FF4FA73002210A110A0FFF721FF12A158
:100CA0001348FFF785FA06460EB1B61D02E0002094
:100CB000BDE8F081002409E0305D2855285D222838
:100CC00002D10020285503E0601CC4B2BC42F3DB13
:100CD00000BF0120ECE700004F4B000041542B43C4
:100CE0004946535200000000415049502C22000058
:100CF000E010002010B5044624B1012C0AD0022CCB
:100D000018D10FE040F6C4130BA20EA10EA0FFF7FE
:100D1000E7FE10BD40F6C41307A20AA10DA0FFF71D
:100D2000DFFEF6E740F6C41303A206A10CA0FFF70E
:100D3000D7FEEEE70020ECE76E6F206368616E6718
:100D4000650000004F4B000041542B43574D4F446A
:100D5000453D310041542B43574D4F44453D3200F2
:100D600041542B43574D4F44453D330010B54FF48C
:100D70000071064800F033FB0548FFF799FA4FF47D
:100D80000071024800F02DFB10BD0000000C014076
:100D900020A107002DE9F04186B007460C46154614
:100DA0001E464FF000083FB1224613A1134802F03F
:100DB0004AF84FF001081BE0052E06DAAB1C32465C
:100DC0000FA101A802F0B2F904E0AA1C11A101A828
:100DD00002F0ACF96423002212A101A8FFF780FE03
:100DE0004FF4FA73002210A12046FFF779FE8046E7
:100DF000404606B0BDE8F081257300000048004081
:100E000041542B43495053454E443D25642C2564A1
:100E10000000000041542B43495053454E443D25AA
:100E2000640000003E20000053454E44204F4B001C
:100E300070B5BCB004460D461646FCB12B460122E7
:100E400015A11EA802F072F9324618A1684602F0F8
:100E50006DF94FF4FA73002218A11EA8FFF740FEA7
:100E600050B14FF4FA73002214A16846FFF738FE20
:100E700010B101203CB070BD0020FBE72B460022E2
:100E800005A11EA802F052F94FF4FA7300220BA13B
:100E90001EA8FFF725FEEDE741542B43495053456B
:100EA000525645523D25642C2573000041542B4376
:100EB000495053544F3D2573000000004F4B000034
:100EC00000B585B00121880401F0B4FC012108209F
:100ED00001F0C0FC4FF48060ADF8100018208DF8D0
:100EE000130003208DF8120004A91A4800F09AF9A3
:100EF0004FF40060ADF8100004208DF8130004A931
:100F0000144800F08FF94FF4E13000900020ADF864
:100F10000400ADF80600ADF80800ADF80C000C2098
:100F2000ADF80A0069460C4801F018FF012240F2B2
:100F30002551094801F0EDFE012240F22441064806
:100F400001F0E7FE00F00AF80121034801F09EFEDF
:100F500005B000BD000C01400048004008B54FF44A
:100F6000A06001F0F1FB27208DF8000000208DF833
:100F700001008DF8020001208DF80300684601F0A1
:100F8000ABFB08BD10B54FF4807000F03FF848B1DE
:100F900001F0E6FB4FF4807000F02CF84FF4807005
:100FA00000F02EF810BD0EB50121084601F052FCEC
:100FB0000821012000F016F94FF480700190002004
:100FC0008DF808000C208DF8090001208DF80A002A
:100FD00001A800F02FF817208DF8000002208DF8EE
:100FE00001008DF8020001208DF80300684601F031
:100FF00073FB0EBD014908607047000014040140F6
:1010000001490860704700001404014001460020B7
:101010000022074B1B6803EA0102054B14331B68CF
:101020000B4013B10AB1012000E00020704700001E
:1010300000040140002123498279002A3AD00A465F
:10104000126803689A430B461A600A1D1268036807
:101050009A430B1D1A60027911440A6803681A4307
:101060000A60184A0832126803689A43154B08331D
:101070001A601A1D126803689A43124B0C331A60E7
:101080004279102A0ED11A1F126803681A430D4BB9
:1010900008331A601A1D126803681A43094B0C338F
:1010A0001A600DE00749427911440A6803681A433F
:1010B0000A6005E0027911440A6803689A430A60ED
:1010C000704700000004014051B18200A2F1C0420B
:1010D000126842F001038200A2F1C042136009E0ED
:1010E0008200A2F1C0421268034B1A408300A3F1B0
:1010F000C0431A6070470000FEFF0F00D0E90112E4
:101100001143C26811430269114342691143826964
:101110001143C2691143026A1143426A1143826A50
:101120001143C26A1143026B114302689200A2F19B
:10113000C0421160816808290BD101688900A1F1C2
:10114000C041096841F0400201688900A1F1C04135
:101150000A60416B0968426B526841EA0211426BB6
:10116000926841EA0221426B928941EA0241426B54
:10117000128A41EA0251426B127D41EA0261426BDE
:10118000926911430268521C9200A2F1C0421160A0
:10119000C16AB1F5804F1BD1816B0968826B5268BF
:1011A00041EA0211826B926841EA0221826B128A43
:1011B00041EA0251826B127D41EA0261826B9269BF
:1011C000114302689200A2F1C042C2F8041107E084
:1011D0006FF0704201688900A1F1C041C1F804219B
:1011E0007047000030B500228B071C0F0F2303FA55
:1011F00004F20B4B8C1053F824309343084C8D10A1
:1012000044F8253023468C1053F824308C07240FE3
:1012100000FA04F42343024C8D1044F8253030BD0D
:10122000080001402DE9F04102460025002600207B
:1012300000230024002791F803C00CF00F0591F85B
:1012400003C00CF0100CBCF1000F03D091F802C0E9
:101250004CEA050591F800C0BCF1000F31D01468CC
:1012600000202BE04FF0010C0CFA00F3B1F800C0A5
:101270000CEA03069E4220D183004FF00F0C0CFABB
:1012800003F7BC4305FA03FC4CEA040491F803C0DD
:10129000BCF1280F06D14FF0010C0CFA00FCC2F88B
:1012A00014C00AE091F803C0BCF1480F05D14FF01B
:1012B000010C0CFA00FCC2F810C0401C0828D1D365
:1012C0001460B1F800C0BCF1FF0F34DD5468002099
:1012D0002EE000F1080C4FF0010808FA0CF3B1F809
:1012E00000C00CEA03069E4221D183004FF00F0C90
:1012F0000CFA03F7BC4305FA03FC4CEA040491F82A
:1013000003C0BCF1280F05D100F1080C08FA0CF855
:10131000C2F8148091F803C0BCF1480F07D100F166
:10132000080C4FF0010808FA0CF8C2F81080401CB5
:101330000828CED35460BDE8F0810000F0B50A461D
:10134000002300240021002500F00046B6F1004FE4
:1013500002D11D4EF16901E01B4E7168C0F30345D7
:1013600083B200F44016B6F5401F08D121F0706139
:10137000154E766826F07066134F7E6012E000F41A
:101380008016B6F5801F06D1032606FA05F4A143A0
:1013900041F0706106E0460D360103FA06F6B143EE
:1013A00041F0706122B1460D360103FA06F6314371
:1013B00000F00046B6F1004F02D1034EF16101E0AA
:1013C000014E7160F0BD00000000014002460020A7
:1013D00093680B400BB1012000E000207047416191
:1013E000704701617047000008B50121042001F039
:1013F00031FA2020ADF8000010208DF80300032002
:101400008DF8020069460248FFF70CFF08BD000096
:101410000008014010B520210148FFF7E0FF10BD92
:101420000008014010B520210148FFF7DAFF10BD88
:101430000008014000BFFEE710B500200F4908601A
:101440000F48406820F470400D49486008464068E5
:1014500040F44050486000200A49C1F8AC01022025
:1014600001F0B2FF012005490860022001F0ACFF45
:1014700000200449C1F8B00110BD0000B0012242B3
:10148000001001400000224208B50121102001F0A7
:10149000E1F94FF4C050ADF8000010208DF80300C2
:1014A00003208DF8020069460448FFF7BBFE0120C7
:1014B000034908600349C1F8AC0108BD00100140B0
:1014C000B00122420000224210B500200F490860FE
:1014D0000F48406820F470400D4948600846406855
:1014E00040F44050486001200A49C1F8AC01022094
:1014F00001F06AFF012005490860022001F064FF45
:1015000000200449C1F8B00110BD0000B001224222
:10151000001001400000224270B505460024174823
:10152000406820F47040154948600846406840F41F
:1015300000404860002616E00020114908600220A3
:1015400001F042FF01200F49C1F8B0016006040E0E
:101550000B488438006808B1601CC4B2012001F057
:1015600033FF701CC6B2082EE6DB15B9FFF7ACFFDF
:1015700001E0FFF761FF204670BD00000010014050
:10158000B00122420000224270B50446154840686E
:1015900020F47040134948600846406840F44050C9
:1015A0004860002010490860002517E0E0090E4956
:1015B000091F08606006040E022001F005FF0120EB
:1015C0000A49C1F8B001022001F0FEFE00200649E0
:1015D0000860022001F0F8FE681CC5B2082DE5DBAA
:1015E00070BD000000100140B00122420000224204
:1015F00010B50F48406820F470400D494860084617
:10160000406840F44050486001200A4908600A4997
:10161000C1F8B001042001F0D7FE002005490860A0
:10162000042001F0D1FE00200349C1F8B00110BD33
:1016300000100140AC0122420000224210B51148C6
:10164000406820F470400F4948600846406840F404
:101650004050486000200C4908600C49C1F8AC01BA
:10166000042001F0B1FE012007490860042001F0C8
:10167000ABFE01200549C1F8AC01042001F0A4FE35
:1016800010BD000000100140B001224200002242C3
:1016900010B500241448406820F470401249486096
:1016A0000846406840F40040486001200F49086047
:1016B00001F08AFE01200E49C1F8B00101F084FE5C
:1016C00007E0601CC4B2FA2C03DDFFF7B7FF01206E
:1016D00010BD0648803800680028F2D10349091D72
:1016E000086000BFF4E7000000100140AC01224296
:1016F0000000224210B504462CB14FF48051054839
:10170000FFF76DFE04E04FF480510248FFF769FED9
:1017100010BD0000001401402DE9F04106460F46BF
:1017200014461D462B4622463946304600F02CFA18
:1017300004FB05F00249098800F0C5F8BDE8F08116
:101740009A00002001B502E00098401E0090009829
:101750000028F9D108BD00002DE9F05F80468946D8
:101760001646A6F120001FFA80FA1E4909688988EA
:101770001C4A1268D28801FB02F0C11700EB5171BC
:10178000C1F3C7071748006800680AFB070B154834
:101790000068C3881348006882884946404600F0C4
:1017A000F3F92C2000F09AFC002416E0002510E04C
:1017B0001BF8040080212941084020B10A48008814
:1017C00000F090FC03E00948008800F08BFC681CE6
:1017D000C5B2082DECDB601CC4B2BC42E6DBBDE840
:1017E000F09F000094000020980000209A00002044
:1017F00070B504460D46002624E0304613490968BA
:101800008988084412490988884205DD00260F4866
:101810000068C088204484B220460C490968C98801
:1018200008440C490988884201DD002600242A78F2
:1018300021463046FFF790FF6D1C04480068808801
:10184000304486B228780028D7D170BD940000209B
:101850008C0000208E00002000B597B03C2108A825
:10186000FEF79BFC1C2101A8FEF797FC0121080252
:1018700000F0D0FF01200190042003908006079023
:10188000002002900490059006900890099008208E
:101890000A9010200B9000200C900E900F9010904A
:1018A0004FF480501190002012901390149001A8D2
:1018B0001590169008A8FFF721FC01210020FFF7E2
:1018C00003FC17B000BD70B504460D4600262C2061
:1018D00000F004FC00BF03E0284600F003FC761C87
:1018E000A642F9D370BD000008B50121602000F0C8
:1018F000B1FF03208DF8020018208DF803004FF48B
:101900008040ADF8000069465B48FFF78BFC4FF460
:101910000040ADF8000069465748FFF783FC0120FE
:10192000ADF8000069465448FFF77CFC0220ADF892
:10193000000069465048FFF775FC8020ADF80000B4
:1019400069464E48FFF76EFC4FF48070ADF800001A
:1019500069464A48FFF766FC4FF40070ADF8000096
:1019600069464648FFF75EFC4FF48060ADF8000022
:1019700069464248FFF756FC4FF40060ADF800009E
:1019800069463E48FFF74EFC4FF48050ADF800002A
:1019900069463A48FFF746FC4FF40050ADF80000A6
:1019A00069463648FFF73EFC4FF48040ADF8000032
:1019B00069463248FFF736FC4FF40040ADF80000AE
:1019C00069462E48FFF72EFC4FF48070ADF80000FA
:1019D00069462948FFF726FC4FF40070ADF8000077
:1019E00069462548FFF71EFC4FF48060ADF8000003
:1019F00069462148FFF716FC03208DF802001820E5
:101A00008DF803001020ADF8000069461A48FFF772
:101A100009FC2020ADF8000069461748FFF702FCDA
:101A20008020ADF8000069461348FFF7FBFB4FF438
:101A30000060ADF8000069460F48FFF7F3FB102087
:101A40008DF8030003208DF802000220ADF800009D
:101A500069460A48FFF7E6FB10208DF803000320D3
:101A60008DF802004FF48050ADF80000694602483E
:101A7000FFF7D8FB08BD000000140140001801402A
:101A800010B50446072C00DD10BD31480470204617
:101A900004EBD0714910A4EB410139B9F0202D4974
:101AA00008804FF4A0702C49088006E04FF4A07025
:101AB00028490880F02028490880362000F00EFBD5
:101AC0002648008849F24131884205D1082141EA7F
:101AD000441000F007FB0AE02048008848F2525109
:101AE000884204D1002141EA441000F0FBFA2A2088
:101AF00000F0F4FA002000F0F5FA002000F0F2FA0D
:101B000014490988491EC1F3072000F0EBFA114976
:101B10000978491EC8B200F0E5FA2B2000F0DEFA81
:101B2000002000F0DFFA002000F0DCFA0A49098802
:101B3000491EC1F3072000F0D5FA07490978491E6C
:101B4000C8B200F0CFFA2C2000F0C8FA00BF9BE723
:101B5000900000208C0000208E00002092000020C9
:101B600010B5FFF7C1FEFFF777FE0120FFF7C2FDBA
:101B700000F0A0FA00F038F802480078FFF780FF84
:101B800010BD0000900000202DE9F04104460D46F4
:101B900016461F462A2000F0A1FA201200F0A2FAF1
:101BA000E0B200F09FFAA119491EC1F30F2000F026
:101BB00099FAA119491EC8B200F094FA2B2000F03E
:101BC0008DFA281200F08EFAE8B200F08BFAE919CB
:101BD000491EC1F30F2000F085FAE919491EC8B269
:101BE00000F080FABDE8F08110B500F025FAFE495A
:101BF00008800846008849F2413188427ED1CF20D2
:101C000000F06CFA002000F06DFA812000F06AFA12
:101C1000302000F067FAED2000F060FA642000F058
:101C200061FA032000F05EFA122000F05BFA8120D6
:101C300000F058FAE82000F051FA852000F052FA3E
:101C4000102000F04FFA782000F04CFACB2000F082
:101C500045FA392000F046FA2C2000F043FA002023
:101C600000F040FA342000F03DFA022000F03AFA89
:101C7000F72000F033FA202000F034FAEA2000F0D8
:101C80002DFA002000F02EFA002000F02BFAB120EF
:101C900000F024FA002000F025FA1B2000F022FAC0
:101CA000B62000F01BFA0A2000F01CFAA22000F077
:101CB00019FAC02000F012FA352000F013FAC12002
:101CC00000F00CFA112000F00DFAC52000F006FA21
:101CD000452000F007FA452000F004FAC72000F084
:101CE000FDF9A22000F0FEF9F22000F0F7F9002043
:101CF00000F0F8F9262000F0F1F900E096E001206C
:101D000000F0F0F9E02000F0E9F90F2000F0EAF926
:101D1000262000F0E7F9242000F0E4F90B2000F081
:101D2000E1F90E2000F0DEF9092000F0DBF9542083
:101D300000F0D8F9A82000F0D5F9462000F0D2F93B
:101D40000C2000F0CFF9172000F0CCF9092000F0AA
:101D5000C9F90F2000F0C6F9072000F0C3F90020F0
:101D600000F0C0F9E12000F0B9F9002000F0BAF964
:101D7000192000F0B7F91B2000F0B4F9042000F09E
:101D8000B1F9102000F0AEF9072000F0ABF92A20DD
:101D900000F0A8F9472000F0A5F9392000F0A2F9D9
:101DA000032000F09FF9062000F09CF9062000F0C7
:101DB00099F9302000F096F9382000F093F90F20BF
:101DC00000F090F9362000F089F9C82000F08AF977
:101DD0002A2000F083F9002000F084F9002000F0B0
:101DE00081F9002000F07EF9EF2000F07BF92B2034
:101DF00000F074F9002000F075F9002000F072F98D
:101E0000012000F06FF93F2000F06CF93A2000F05B
:101E100065F9552000F066F9112000F05FF973486C
:101E2000FFF790FC292000F059F901E16E48008885
:101E300048F252518842F8D1CF2000F04FF90020EB
:101E400000F050F9C12000F04DF9302000F04AF9BF
:101E5000ED2000F043F9642000F044F9032000F085
:101E600041F9122000F03EF9812000F03BF9E82012
:101E700000F034F9852000F035F9102000F032F937
:101E8000782000F02FF9CB2000F028F9392000F05D
:101E900029F92C2000F026F9002000F023F9342045
:101EA00000F020F9022000F01DF9F72000F016F9EB
:101EB000202000F017F9EA2000F010F9002000F0CF
:101EC00011F9002000F00EF9C02000F007F92120E0
:101ED00000F008F9C12000F001F9112000F002F92A
:101EE000C52000F0FBF82D2000F0FCF8332000F0B6
:101EF000F9F8362000F0F2F8002000F0F3F83A206C
:101F000000F0ECF8552000F0EDF8B12000F0E6F814
:101F1000002000F0E7F8172000F0E4F8B62000F009
:101F2000DDF80A2000F0DEF8A22000F0DBF8F62051
:101F300000F0D4F8012000F0D5F8302000F0D2F8FD
:101F4000F22000F0CBF8002000F0CCF8262000F0C2
:101F5000C5F8012000F0C6F8E02000F0BFF8D0205E
:101F600000F0C0F8002000F0BDF8022000F0BAF840
:101F7000072000F0B7F80B2000F0B4F81A2000F0AA
:101F8000B1F8312000F0AEF8542000F0ABF840205A
:101F900000F0A8F8292000F0A5F8122000F0A2F81F
:101FA000122000F09FF8122000F09CF8172000F09B
:101FB00099F8E12000F092F8D02000F093F800208A
:101FC00000F090F8022000F08DF8072000F08AF869
:101FD000052000F087F8252000F084F82D2000F07F
:101FE00081F8442004E0000092000020FCBF0200C1
:101FF00000F078F8452000F075F81C2000F072F829
:10200000182000F06FF8162000F06CF81C2000F08B
:1020100069F81D2000F066F8112000F05FF805480F
:10202000FFF790FB292000F059F82C2000F056F81B
:1020300010BD0000FCBF020010B50024042000F019
:102040004DF800BF1748008800BF1648008800F010
:102050002BF804464FF6FF7000EA042400F024F841
:10206000044348F25250844201D1204610BDD3208F
:1020700000F034F800BF0B48008800BF0948008812
:1020800000F012F804464FF6FF7000EA042400F056
:102090000BF8044349F24130844201D12046E5E780
:1020A0000020E3E70000026001480088704700005C
:1020B0000000026010B502210748FFF790F940F6D2
:1020C000FF20FFF73FFB02210348FFF78AF940F6A4
:1020D000FF20FFF737FB10BD001801404FF0C04153
:1020E00008807047014908807047000000000260C6
:1020F00070B5044600F00CF8C5882B4603480288EA
:1021000021460020FFF708FB70BD00008C00002076
:1021100001480068704700009400002008B50121C4
:10212000092000F097FB01211E48FFF707F98020E6
:10213000ADF8000010208DF8030003208DF8020098
:1021400069461948FFF76EF84FF48040ADF800007B
:1021500069461548FFF766F80220ADF800006946A9
:102160001148FFF75FF84FF40050ADF800006946E2
:102170000D48FFF757F84020ADF8000048208DF8D3
:10218000030069460848FFF74DF84FF40040ADF8EA
:10219000000004208DF8030069460348FFF742F869
:1021A00008BD000000023000000C014070B504467C
:1021B0000D4629462046FFF709F9012801D10020E4
:1021C00070BD0120FCE7000070B5CAB0A02122A8B4
:1021D000FDF7E3FF78222A4904A8FDF7C5FF284B45
:1021E00078330FCB8DE80F000126002441E000F08A
:1021F0008DF808B900263EE01DF80410C12000F05B
:10220000E9F90021C32000F0E5F90421082000F0DD
:10221000E1F9012001F0B2F80021082000F0DAF91C
:10222000012001F0ABF8002512E004EB840004A9C2
:1022300001EB8000405D00B90CE004EB840004AACF
:1022400002EB8000415D052000F0C4F9681CC5B2B6
:10225000142DEADB00BF2946B92000F0BBF9FF21AD
:10226000B22000F0B7F90421372000F0B3F9601C68
:10227000C4B20E2CBBDB00BF30464AB070BD0000BC
:10228000F480000810B54321352000F0A3F909219E
:102290001C2000F09FF92021BD2000F09BF90121B6
:1022A000082000F097F9052001F068F800210820C7
:1022B00000F090F9052001F061F800F027F808B966
:1022C000002010BDFF21B22000F084F90621372044
:1022D00000F080F9052001F051F80621372000F0C8
:1022E00079F9052001F04AF80B211C2000F072F961
:1022F0001021292000F06EF90021BD2000F06AF9BC
:102300000120DEE710B500F01DF810BD70B5002605
:1023100000250CE0B22000F0B3F80446212C01D1D6
:10232000012606E0142001F029F8681CC5B2052D2D
:10233000F0DB00BF304670BD10B5C52000F0A0F83E
:1023400010BD000010B508201949087000F032F8DF
:102350000021BD2000F03EF94821172000F03AF995
:10236000052001F00BF880213C2000F033F9072113
:102370003E2000F02FF9FF21382000F02BF9072133
:102380003A2000F027F90021402000F023F908212D
:10239000422000F01FF90021442000F01BF9082121
:1023A000462000F017F9052000F0E8FF10BD0000FE
:1023B000BE00002010B5062000F062F8352117207D
:1023C00000F008F9052000F0D9FF062000F058F8C9
:1023D0000321892000F0FEF8052000F0CFFF432103
:1023E000CF2000F0F7F8052000F0C8FF0221CB2035
:1023F00000F0F0F80B21112000F0ECF81F480078F5
:10240000402810D100211E2000F0E4F80F211920EF
:1024100000F0E0F818211B2000F0DCF82C211D2032
:1024200000F0D8F80FE000211E2000F0D3F83F2183
:10243000192000F0CFF848211B2000F0CBF81F2115
:102440001D2000F0C7F8052000F098FF0421CD20E2
:1024500000F0C0F84C21172000F0BCF8052000F077
:102460008DFF0021B92000F0B5F84F21CF2000F0FA
:10247000B1F8FF216F2000F0ADF810BDBE000020C4
:102480002DE9F041054600240026A046052700203E
:102490003A490860012000F097FF00BF1DE007F0F7
:1024A000800020B1012035493431086003E000206C
:1024B000324934310860012000F086FF00202F49A6
:1024C000183108607806070E012000F07DFF01201A
:1024D0002B49C1F89C01601CC4B2082CDFDB00242E
:1024E0001DE005F0800020B101202449343108604E
:1024F00003E00020214934310860012000F064FF2E
:1025000000201E49183108606806050E012000F001
:102510005BFF01201A49C1F89C01601CC4B2082C61
:10252000DFDB012000F050FF00241BE07006060EE8
:1025300012486C38006800F0FF08012000F044FFEA
:1025400000200F49C1F89C01B8F1010F01D146F0FC
:102550000106012000F038FF012008491831086009
:10256000601CC4B2082CE1DB012000F02DFF01202B
:10257000024908603046BDE8F081000084812142B4
:102580000080214210B5012010490860052000F0AC
:10259000F5FE00200E49C1F8B401052000F0EEFE62
:1025A00001200A490860052000F0E8FE00200849E3
:1025B000C1F88401052000F0E1FE01200349303913
:1025C0000860052000F0DAFE10BD0000B481214251
:1025D000008021422DE9F04105460E4600240427E3
:1025E000002039490860012000F0EEFE00BF1DE028
:1025F00007F0800020B1012033493431086003E046
:102600000020314934310860012000F0DDFE002057
:102610002D49183108607806070E012000F0D4FE1D
:1026200001202A49C1F89C01601CC4B2082CDFDBE0
:1026300000241DE005F0800020B101202249343142
:10264000086003E00020204934310860012000F0D8
:10265000BBFE00201C49183108606806050E0120E9
:1026600000F0B2FE01201949C1F89C01601CC4B2FF
:10267000082CDFDB00241DE006F0800020B10120E3
:1026800011493431086003E000200F4934310860FB
:10269000012000F099FE00200B49183108607006F7
:1026A000060E012000F090FE01200849C1F89C01AF
:1026B000601CC4B2082CDFDB012000F085FE012085
:1026C00001490860BDE8F0818481214200802142F7
:1026D00000BFFEE77047000070B5002100230F2205
:1026E000C47804B3154C246804F4E064C4F5E064D1
:1026F000210AC1F10403CA40447804FA03F1847842
:102700001440214309010E4C0678A155047804F0C9
:102710001F050124AC4005786D11AD0005F1E025E1
:10272000C5F8004109E0047804F01F050124AC401D
:10273000044D0678761145F8264070BD0CED00E09A
:1027400000E400E080E100E002490143024A116038
:10275000704700000000FA050CED00E07047000033
:1027600010B500242B20FFF78BFE284908700021AC
:102770002920FFF72FFF00210220FFF72BFF23481E
:10278000007800F01000C8B1B220FFF779FE2128D0
:1027900014D1BF20FFF774FE35280FD1BA20FFF700
:1027A0006FFE0446002C05DD042C03DC10201849C4
:1027B000087006E011201649087002E01120144943
:1027C000087000212B20FFF705FF00211C20FFF7D8
:1027D00001FF00212920FFF7FDFE00210220FFF765
:1027E000F9FE00212B20FFF7F5FE0021BA20FFF7AC
:1027F000F1FE0021BC20FFF7EDFE01210820FFF7CC
:10280000E9FE00210820FFF7E5FE10BDBF00002013
:102810003A00002029B1064A52690243044B5A612A
:1028200004E0034A52698243014B5A617047000039
:102830000010024029B1064AD2690243044BDA6112
:1028400004E0034AD2698243014BDA617047000019
:102850000010024029B1064A92690243044B9A6172
:1028600004E0034A92698243014B9A617047000079
:102870000010024030B500210022002400232D4D1D
:102880006D6805F00C0121B1042905D0082923D178
:1028900005E0294D056022E0274D05601FE0254D2C
:1028A0006D6805F47012234D6D6805F480340225BF
:1028B00005EB92421CB9214D554305600BE01D4DBF
:1028C0006D6805F400351DB11C4D5543056002E0EF
:1028D000194D5543056002E0174D056000BF00BF6C
:1028E000144D6D6805F0F0010909154D6B5C056824
:1028F000DD4045600F4D6D6805F4E061090A104D3B
:102900006B5C4568DD4085600A4D6D6805F460517B
:10291000C90A0B4D6B5C4568DD40C560054D6D68AF
:1029200005F44041890B074D6B5CC568B5FBF3F5B9
:10293000056130BD0010024000127A0000093D0020
:10294000140000202400002070B50024002500BFE2
:102950001DE0FFF7D7FC052000F010FDFFF734FC69
:1029600028B9FFF70FFE052000F008FD0DE0052057
:1029700000F004FDFFF786FC28B9FFF703FE0520F1
:1029800000F0FCFC01E0012503E0601CC4B2052C52
:10299000DFDB00BF284670BD704710B500F002F8BD
:1029A00010BD00000CB50020019000903348006875
:1029B00040F480303149086000BF3048006800F4BE
:1029C000003000900198401C0190009818B90198BF
:1029D000B0F5A06FF1D12948006800F4003010B1C3
:1029E0000120009001E0002000900098012843D1D0
:1029F0002348006840F0100021490860084600683C
:102A000020F0030008600846006840F002000860FB
:102A10001A484068194948600846406848600846B6
:102A2000406840F4806048600846406820F47C10AC
:102A300048600846406840F4E8104860084600686E
:102A400040F08070086000BF0C48006800F0007023
:102A50000028F9D00948406820F003000749486081
:102A60000846406840F00200486000BF03484068E4
:102A700000F00C000828F9D10CBD00000010024045
:102A800000200240042808D14FF0E021096941F0FC
:102A900004014FF0E022116107E04FF0E0210969E5
:102AA00021F004014FF0E0221161704770470000EF
:102AB00030B51A4800686422B0FBF2F1B1F1807FB2
:102AC00001D301201DE021F07F40401E4FF0E022A5
:102AD000506150170F22002807DA13071D0E104B04
:102AE00000F00F04241F1D5503E013071C0E0D4BAF
:102AF0001C5400BF00204FF0E022906107201061BD
:102B0000002008B100BFFEE74FF0E020006940F070
:102B100001004FF0E021086130BD000000000020FE
:102B200018ED00E000E400E010B51348006840F044
:102B300001001149086008464068104908400E49E4
:102B40004860084600680E4908400B49086008467E
:102B5000006820F4802008600846406820F4FE00E9
:102B600048604FF41F008860FFF717FF4FF00060C8
:102B70000449086010BD0000001002400000FFF88A
:102B8000FFFFF6FE08ED00E010B540F225511D48AC
:102B900000F095F810B31B4800F04CF9C4B21A4885
:102BA000008800F40040C8B91748008800F480404D
:102BB00060B10A2C03D000201349088020E012489D
:102BC000008840F400401049088019E00D2C06D11F
:102BD0000D48008840F480400B49088010E00A4806
:102BE0000088C0F30D0009490C5407480088401CB8
:102BF0000549088008460088C72801DD00200880B4
:102C000010BD000000380140BC0000204615002027
:102C100010B540F225511B4800F051F8D8B11948C1
:102C200000F008F9C4B21848B0F80004C0F30E0070
:102C300040F2FF3188420EDA1349B1F80014C1F3B3
:102C40000E00411C104AB2F8002461F30E020E4936
:102C5000A1F800240C5440F224410A4800F02FF857
:102C600001280DD10848B0F8000420F4004000F518
:102C700000400549A1F80004024800F0DBF8C4B2A6
:102C800010BD000000480040E010002021B1828902
:102C900042F40052828104E082894DF6FF731A40AB
:102CA0008281704702460020B1F5007F00D100BF4D
:102CB00013880B400BB1012000E00020704770B575
:102CC0000246002400230025002040F66A16B14287
:102CD00000D100BFC1F3421501F01F03012606FA1F
:102CE00003F3012D02D19689334006E0022D02D173
:102CF000168A334001E0968A33400C12012606FA08
:102D000004F41688344013B10CB1012000E0002017
:102D100070BDF0B50346002400260025002040F6D3
:102D20006A17B94200D100BF1846C1F3421401F03E
:102D30001F06012707FA06F5012C01D10C3004E02B
:102D4000022C01D1103000E014301AB107682F4373
:102D5000076002E00768AF430760F0BD2DE9F04768
:102D600086B005460E460024A24600BFA1460027B5
:102D7000B08900B100BF2F462C8A4CF6FF7004408A
:102D8000F08804432C82AC894EF6F3100440B088DE
:102D900031890843718908430443AC81AC8A4FF6FA
:102DA000FF400440B0890443AC8201A8FFF762FDF4
:102DB0001F48874202D1DDF810A001E0DDF80CA029
:102DC000A88900F4004040B10AEBCA0000EB0A10E9
:102DD00031684900B0FBF1F807E00AEBCA0000EBEC
:102DE0000A1031688900B0FBF1F86420B8FBF0F0FC
:102DF00004012009642101FB1089A88900F4004026
:102E000040B1322000EBC900B0FBF1F000F0070048
:102E1000044308E0322000EB09106421B0FBF1F01C
:102E200000F00F0004432C8106B0BDE8F0870000DD
:102E30000038014001468888C0F308007047C1F39C
:102E40000802828070470FB470B586B006460CA8A1
:102E5000019073E00B9800785C281CD10B98401C03
:102E60000B9000786E2809D072280FD10D213046C2
:102E7000FFF7E5FF0B98401C0B900BE00A21304652
:102E8000FFF7DDFF0B98401C0B9003E00B98401CF4
:102E90000B9000BF4BE00B980078252840D10B9891
:102EA000401C0B900078642818D0732833D1019807
:102EB00010C801900BE021783046FFF7C0FF00BF3B
:102EC00080213046FFF7EEFE0028F9D0641C207800
:102ED0000028F0D10B98401C0B9020E0019820C8EE
:102EE00001900A2202A9284600F0A6FA02AC0BE0E3
:102EF00021783046FFF7A3FF00BF80213046FFF75F
:102F0000D1FE0028F9D0641C20780028F0D10B985D
:102F1000401C0B9003E00B98401C0B9000BF06E098
:102F20000B9810F8011B0B903046FFF788FF00BF8D
:102F300080213046FFF7B6FE0028F9D00B980078C4
:102F4000002887D106B070BC5DF814FB00B585B0D1
:102F500001218803FFF77EFC01210420FFF77AFCA2
:102F60004FF40070ADF8100018208DF81300032006
:102F70008DF8120004A91348FEF754F94FF480604D
:102F8000ADF8100004208DF8130004A90D48FEF7D9
:102F900049F94FF4E13000900020ADF80400ADF89D
:102FA0000600ADF80800ADF80C000C20ADF80A00E2
:102FB00069460548FFF7D2FE01210348FFF766FE88
:102FC00005B000BD000801400038014000BFFEE729
:102FD00010B5044624A000F099F834B90120244922
:102FE000087024A000F092F83CE021480078002806
:102FF00035D000201E49087020480078C01E0528E2
:103000002BD2DFE800F0030C151C230000201C4924
:103010000870FEF707FA1BA000F078F81EE0002009
:1030200017490870FEF7F6F91BA000F06FF815E0DD
:103030000120134908701DA000F068F80EE001207F
:103040002049087020A000F061F807E000201D4929
:10305000087023A000F05AF800E000BF02E026A0AC
:1030600000F054F810BD0000BFAACABC0000000068
:103070003C000020CAD5B5BD0D0A00003B00002071
:103080007000002022BFAAB5C622CAB6B1F0B3C9EB
:10309000B9A60D0A0000000022B9D8B5C622CAB6EA
:1030A000B1F0B3C9B9A60D0A0000000022D7D4B60A
:1030B000AFBFD8D6C622CAB6B1F0B3C9B9A60D0AF9
:1030C000000000007100002022B2E2D0C4C2CAD1C8
:1030D000AAD1F522CAB6B1F0B3C9B9A60D0A00004B
:1030E00022BDE1CAF8B2E2C1BF22CAB6B1F0B3C98B
:1030F000B9A60D0A00000000C7EBCBB5B3F6D2BBF2
:10310000BCB6BFDAC1EE0D0A000000000FB4054BDB
:1031100010B503A9044A029800F02CF810BC5DF821
:1031200014FB000015340008B80000200FB4084B51
:1031300010B504A902AA039800F01CF8044602A9DD
:10314000002000F0F3F8204610BC5DF814FB0000EE
:103150002D33000802E008C8121F08C1002AFAD166
:1031600070477047002001E001C1121F002AFBD107
:10317000704700002DE9FF4F8BB09A460F46054679
:10318000002606E025280BD052460D9990476D1C6D
:10319000761C28780028F5D10FB03046BDE8F08FB6
:1031A0000024A0460122604900E0044315F8013FD5
:1031B000203B02FA03F00842F7D128782E2817D1D5
:1031C00015F8010F44F004042A280ED06FF02F02E6
:1031D0002878A0F1300109290AD808EB880102EB10
:1031E000410100EB01086D1CF2E757F8048B6D1CE0
:1031F000287869283ED006DC0028CDD063280BD083
:10320000642804D136E0732810D075284BD052467C
:103210000D999047761C85E017F8040B8DF8000097
:1032200000208DF80100E946012003E057F8049BD7
:103230004FF0FF3061074FF0000401D40AE0641C36
:1032400044450DDA8442FADB19F804100029F6D15E
:1032500006E0641C8442FCDB19F804100029F8D154
:10326000264404E019F8010B52460D999047641E5C
:10327000F8D257E001CF4FF00A0B002802DA4042A3
:103280002D2102E0210504D52B218DF824100121E8
:1032900003E0E10705D02021F7E70DF120090891AF
:1032A0000CE00021F9E701CF4FF00A0BF9E759468E
:1032B000FCF797FF01F1300209F8012D0028F6D143
:1032C000ADEB090000F1200B600701D44FF00108BD
:1032D000D84502DDA8EB0B0000E00020804600246A
:1032E00006E009A85246005D0D999047641C761CC3
:1032F00008988442F5DB04E0302052460D9990474F
:10330000761CB8F10001A8F10108F5DC05E019F818
:10331000010B52460D999047761CBBF10001ABF1B1
:10332000010BF4DC6D1C34E7092801000A68531C0A
:103330000B6010707047000010B56FF00400FFF7CD
:10334000A1FB0A4800680A49B0FBF1F0094908707E
:103350000846007800EB4001C1EBC0104FF6FF714A
:1033600001EAC0000449088010BD000000000020F0
:1033700000127A00B2000020B40000200146114A79
:1033800012884A434FF0E0235A6100229A611A469C
:10339000126942F001021A6100BF4FF0E022106989
:1033A00000F001021AB100F48032002AF5D04FF08B
:1033B000E022126922F001024FF0E0231A6100229C
:1033C0009A617047B40000200146114A12784A43BE
:1033D0004FF0E0235A6100229A611A46126942F0C6
:1033E00001021A6100BF4FF0E022106900F00102F3
:1033F0001AB100F48032002AF5D04FF0E0221269B1
:1034000022F001024FF0E0231A6100229A61704716
:10341000B200002070B504460D46E1B20548FFF742
:103420000EFD00BF80210348FFF73CFC0028F9D0C7
:10343000204670BD00380140F0B503460D461646E3
:10344000002729460A2E03D0002008702846F0BD28
:1034500033B9302001F8010B002008702846F6E748
:10346000002B03DA2D2001F8010B5B4242F21072AF
:103470000DE093FBF2F404B937B104F1300001F828
:10348000010B04FB123301270A2092FBF0F2002A01
:10349000EFDC002008702846D9E700009EB0FFF757
:1034A00007FBFDF7A1FFFFF751FDFCF7E7FEFDF776
:1034B000D9FBFCF73BFFFCF7D3FEFEF751FB0620E0
:1034C000FEF7DEFAFE480388FE480288002108461F
:1034D000FEF722F9FFF730FF4FF4A060FFF734F951
:1034E000FFF72AFFFDF75FFDFFF74CF84FF416508A
:1034F00000F084FF0020F4490870F44908604FF49C
:10350000A060FFF721F94FF4E13000F077FFFDF7FD
:103510000BF8FEF703FEFDF7B7FF00F08FFE10B9C2
:10352000EBA0FFF7F3FDF149002000F05DFE10B9BC
:10353000EFA0FFF7EBFD00F099FD10B9F6A0FFF743
:10354000E5FD00BFFA4E00274FF4FA70F949086014
:10355000F9A0FFF7DBFD00251EE000BFDB48543873
:1035600000680128FAD0F84A02EB8501F74A02EB1D
:10357000850000F0CDFDF44850F82500B04202D29D
:10358000F14850F82560F04850F82500B84202D9BB
:10359000ED4850F825706D1CE64800688542DCDB7C
:1035A00000BFEB48EB49EC4AEC4BCDE9002102901F
:1035B000E54AE0480168E54800F0D8FAE8A0FFF7DE
:1035C000A5FD94E2DA4E002703A8FCF709FF0128C5
:1035D0003AD1FEF79DFD4FF00008EBA14046FEF703
:1035E00007F99DF80F309DF80E20EEA105A8FFF712
:1035F0009DFDFEF78DFDB0F806804046FEF778FD94
:10360000FEF786FDB0F8068005A94046FEF7F0F803
:103610009DF80D309DF80C20E8A105A8FFF786FD68
:10362000FEF776FDC08840044FEA10484046FEF79A
:103630005FFDFEF76DFDC08840044FEA104805A904
:103640004046FEF7D5F821E0FEF762FDB0F80680AF
:103650004046FEF74DFDFEF75BFDC08840044FEA93
:1036600010484046FEF744FDFEF752FDB0F80680D4
:10367000D7A14046FEF7BCF8FEF74AFDC0884004DB
:103680004FEA1048D8A14046FEF7B2F84FF4005177
:10369000DB48FEF78BFD012818D1DA48007808B125
:1036A000FDF7B8FEFEF734FDC08880044FEA1048ED
:1036B0004046FEF71DFDFEF72BFDC08880044FEA53
:1036C0001048D1A14046FEF793F817E0CD480078A6
:1036D00008B1FDF7A7FEFEF71BFDC08880044FEA86
:1036E00010484046FEF704FDFEF712FDC088800436
:1036F0004FEA1048C8A14046FEF77AF8642420E05B
:10370000914850F82410A4F164008F4A42F8201028
:103710008E4850F82410A4F164008C4A42F820101E
:10372000894850F82400B04202D2874850F82460FB
:10373000854850F82400B84202D9834850F82470D4
:10374000641CB4F5FA7FDBDB4FF4C8740FE000BFF4
:1037500000BF5E48543800680128FAD07A4A02EB6C
:1037600084017A4A02EB840000F0D2FC641CB4F5B8
:10377000FA7FECDBAC480078002872D0ABA0FFF7F2
:10378000C5FC714850F82410AAA0FFF7BFFCAAA0FE
:10379000FFF7BCFC6D4850F82410A6A0FFF7B6FC5C
:1037A0006C480168A6A0FFF7B1FC6A48A7A10268AF
:1037B00005A8FFF7BBFCFEF7ABFCC08800EB800060
:1037C00040044FEA10484046FEF792FCFEF7A0FC8A
:1037D000C08800EB800040044FEA104805A940462D
:1037E000FEF706F85A4890F900109AA0FFF78EFCF1
:1037F0005A4801689BA0FFF789FC584899A10268C4
:1038000005A8FFF793FCFEF783FCC08800EB40019E
:1038100001EBC0001FFA80F84046FEF769FCFEF796
:1038200077FCC08800EB400101EBC0001FFA80F874
:1038300005A94046FDF7DCFF474890F900108CA031
:10384000FFF764FC42484349434A444BCDE9002119
:1038500002903D4A374801683C4800F087F91AE079
:10386000FFE787A0FFF752FCFEF752FCC08800EB91
:10387000800040044FEA10484046FEF739FCFEF74E
:1038800047FCC08800EB400101EBC0001FFA80F844
:103890004046FEF72DFCC820FFF770FD2C4890F93C
:1038A00000106CA0FFF732FC2C4801686DA0FFF7F8
:1038B0002DFC2A480368284890F900202548E3E0B9
:1038C0008E0000208C0000203A00002084812142DC
:1038D0006D617833303130325F72657365742066A4
:1038E00061696C6564210D0A000000003900002048
:1038F000726561645F726567205245475F494E5447
:10390000525F5354415455535F31206661696C6571
:1039100064210D0A000000006D61783330313032CF
:103920005F696E6974206661696C6564210D0A00C7
:10393000FFFF030028000020B2C9BCAF353030B80B
:10394000F6D1F9B1BE0D0A0090080020C000002099
:103950003800002034000020300000202C0000201F
:103960000D0AD2B0BBF02057462D455350383236A1
:10397000362057694669C4A3BFE9B2E2CAD4C0FD84
:10398000B3CC0D0A000000003C3C5169616E20522E
:103990007520536869204461205A756F2059653E2F
:1039A0003E00000054656D7065726174757265202B
:1039B0003A2025642E2564200000000048756D69BA
:1039C00064697479203A2025642E25642525000039
:1039D00044485431312054656D706572617475725C
:1039E00065204552524F52004448543131204875A9
:1039F0006D6964697479204552524F52000000008D
:103A000000100140700000204C69676874206973E1
:103A100020476F6F642100004C69676874206973E8
:103A20002042616421000000710000207265643D45
:103A300000000000256900002C2069723D00000094
:103A40002C2048523D25692C200000004852203A85
:103A500025690000485276616C69643D25692C2017
:103A60000000000053704F323D25692C20000000FB
:103A700053504F3256616C69643D25690D0A000050
:103A80006E6F6E65000000000168194890F9000033
:103A9000FCF774FE17480078102815D003DC48B1F5
:103AA00001281DD104E011281BD0312818D100E0D5
:103AB00000BF1AE001200F490870FEF745FF10B95A
:103AC00031200C49087010E0FEF736FC0A490870F6
:103AD00008460078FFF77CFA00200649087004E0E9
:103AE00000BF00200349087000BF00BF00BF69E5A8
:103AF000380000203A0000203B00002008B50121DA
:103B00000820FEF7A7FE4FF48050ADF80000042017
:103B10008DF8030003208DF8020069460148FDF787
:103B200081FB08BD000C01402DE9F84705460C4615
:103B300016461F46DDE90A9ADDF824803B463246E8
:103B400021462846CDF8008000F0A6FB4B463246C1
:103B50002146284600F0DDFB2068504501DA206848
:103B600000E050462060BDE8F88700002DE9FF4FD7
:103B7000C6B08846994600204590002406E0469845
:103B800050F82410459808444590641C4445F6DBE1
:103B90004598B0FBF8F04590002408E0469850F8AE
:103BA00024104598081AFE4941F82400641C444535
:103BB000F4DB002417E0FA4850F824100246601C99
:103BC00052F820000144A01C52F820000144E01CDF
:103BD00052F820000F183846F91707EB9171891039
:103BE00042F82410641CB4F5F87FE4DB00240AE0FA
:103BF000EB49601C51F8200051F82410401AE949A3
:103C000041F82400641CB4F5F77FF1DD00240EE0D8
:103C1000E44951F824200B46611C53F82110501838
:103C200000EBD07149101A4642F82410641CB4F518
:103C3000F77FEDDB00251BE0002043902C460BE0D6
:103C4000D84850F82410601BD74A32F81020439807
:103C500001FB12004390641C681D8442F0DB40F2BB
:103C60007A41439890FBF1F0CE4941F825006D1C54
:103C7000B5F5F47FE0DD00204190002410E0C94854
:103C800050F82400002803DDC64850F8240003E063
:103C9000C44850F824004042419908444190641CB3
:103CA000B4F5F77FEBDD40F2EF11419890FBF1F0B6
:103CB000419005210822419840F2EF13CDE90121FE
:103CC0000090B84A40A912A8FFF72EFF00201190DB
:103CD0004098022821DB01240BE012A850F82410A0
:103CE000601E12AA52F82000091A11980844119077
:103CF000641C40988442F0DB4098401E119991FB6F
:103D0000F0F0119041F27071119891FBF0F154981C
:103D1000016001215598017005E0A44954980160A3
:103D2000002155980170002407E012A850F82400E3
:103D3000801C30A941F82400641C40988442F4DBC4
:103D400000240CE0469850F82400954941F82400DE
:103D5000489850F82400964941F82400641C4445D2
:103D6000F0DB0020429000242DE00120449030A898
:103D700050F824A04FF080703F900AF10500B0F594
:103D8000F77F1FDC0A3800281CDD054611E0844857
:103D900050F825103F9881420ADA449808B1002073
:103DA00044907F4850F825003F9021A840F82450C7
:103DB0006D1C0AF105008542E9DB449810B9429870
:103DC000401C4290641C40988442CEDB42980228FA
:103DD00008DA7648C9F800000021539801704AB00B
:103DE000BDE8F08F00242EE06D4951F824200B46E9
:103DF000611C53F821100A44A11C53F821100A44F5
:103E0000E11C53F821105018C11700EB9171891073
:103E10001A4642F82410664951F824200B46611CCA
:103E200053F821100A44A11C53F821100A44E11C44
:103E300053F821105018C11700EB917189101A46E0
:103E400042F82410641CB4F5F87FCDDB0020049008
:103E50000026002404E0002005A941F82400641C89
:103E6000052CF8DB00240DE021A850F82400B0F563
:103E7000FA7F06DD4D48C9F8000000215398017013
:103E8000ADE7641C42988442EEDB0024AEE04FF0C4
:103E90007F400D900C9021A9601C51F8200051F832
:103EA0002410401A0A2879DD21A850F8245016E081
:103EB0003B4850F825100C98814204DD384850F8F2
:103EC00025000C900A953A4850F825100D9881422B
:103ED00004DD374850F825000D900B956D1C21A985
:103EE000601C51F82000A842E2DC601C51F8200060
:103EF0002F4951F8200021A951F824102C4A52F8DA
:103F00002110401A21A951F824200B99891A4843FD
:103F1000109021A9601C51F8200051F82410411A7A
:103F2000109890FBF1F021A951F82410204A52F882
:103F300021100844109011460B9851F82010109849
:103F4000081A109021A9601C51F82000144951F85A
:103F5000200021A951F82410114A52F82110401ACA
:103F600021A951F824200A99891A48430F9021A9C0
:103F7000601C51F8200051F82410411A0F9890FB52
:103F8000F1F021A951F82410054A52F821100844F3
:103F90000F9011460B9851F820100BE025E000001F
:103FA000D01D002010160020FC7F000819FCFFFF28
:103FB000A02500200F98081A0F900C9910984843DC
:103FC000C01103900D990F984843C711002F0CDDC5
:103FD000052E0ADA039840B164210398484390FB08
:103FE000F7F005A941F82600761C641C4298401E93
:103FF000A0423FF74CAF314605A800F0C3F9304668
:1040000006EBD0714FEA610BBBF1010F0CDDABF198
:10401000010105AA52F8211052F82B20881800EB54
:10402000D0714910049103E005A850F82B000490CA
:10403000049802280DDD0498B8280ADA0949049882
:10404000085C0E900E98C9F8000001215398017089
:1040500005E00548C9F8000000215398017000BF31
:10406000BDE600003A80000819FCFFFF10B5FFF71D
:1040700045FDC021022000F0EBF808B9002010BD7A
:104080000021032000F0E4F808B90020F7E7002140
:10409000042000F0DDF808B90020F0E70021052039
:1040A00000F0D6F808B90020E9E70021062000F06A
:1040B000CFF808B90020E2E70F21082000F0C8F887
:1040C00008B90020DBE70321092000F0C1F808B996
:1040D0000020D4E727210A2000F0BAF808B9002010
:1040E000CDE724210C2000F0B3F808B90020C6E782
:1040F00024210D2000F0ACF808B90020BFE77F2193
:10410000102000F0A5F808B90020B8E70120B6E7B4
:104110002DE9FE4304460D4600202060286002A9D8
:1041200000F062F802A9012000F05EF807208DF887
:104130000000FDF75DFAAE20FDF726FAFDF7A8FABC
:1041400007469DF80000FDF71FFAFDF7A1FA80462B
:10415000FDF74EFAAF20FDF717FAFDF799FA814601
:104160000120FDF7D9F90646360420683044206066
:104170000120FDF7D1F90646360220683044206060
:104180000120FDF7C9F9064620683044206001206F
:10419000FDF7C2F90646360428683044286001203D
:1041A000FDF7BAF906463602286830442860012037
:1041B000FDF7B2F906462868304428602068C0F34D
:1041C000110020602868C0F311002860FDF736FA5E
:1041D0002FB9B8F1000F02D1B9F1000F02D00020C1
:1041E000BDE8FE830120FBE72DE9F04105460C46C2
:1041F000FDF7FEF9AE20FDF7C7F9FDF749FA0646CF
:104200002846FDF7C1F9FDF743FA0746FDF7F0F937
:10421000AF20FDF7B9F9FDF73BFA80460020FDF726
:104220007BF92070FDF70AFA1EB917B9B8F1000F33
:1042300002D00020BDE8F0810120FBE710B540214D
:10424000092000F005F808B9002010BD0120FCE7A6
:104250002DE9F04105460C46FDF7CAF9AE20FDF701
:1042600093F9FDF715FA06462846FDF78DF9FDF797
:104270000FFA07462046FDF787F9FDF709FA804651
:10428000FDF7DCF91EB917B9B8F1000F02D0002014
:10429000BDE8F0810120FBE7F0B505461C46059E10
:1042A000012000270F6030E052F82070B7422BDD6C
:1042B00052F820C0471E52F82770BC4524DD012368
:1042C00000E05B1CC718A74207DA52F8207000EB29
:1042D000030C52F82CC06745F3D052F8207000EB65
:1042E000030C52F82CC067450CDD0F680F2F09DA5C
:1042F000D1F800C00CF101070F6045F82C005F1CDD
:10430000384402E0184400E0401C671E8742CBDCC2
:10431000F0BD2DE9F04F05460C46924698462946D9
:104320005046226800F049F84FF0FF3621E0D4F8FB
:1043300000B0701C2060771C18E055F82710701C26
:1043400010B94FF0FF3001E055F82600A1EB00094D
:10435000C14503DCC8F10000814506DA55F8271095
:104360002268501C206045F822107F1C5F45E4DB6A
:10437000761C2068B042DADC2846216800F002F89A
:10438000BDE8F08F30B50C46012213E050F8223022
:10439000114605E04D1E50F8255040F82150491EA9
:1043A000002904DD4D1E50F825509D42F2DC40F8F6
:1043B0002130521CA242E9DB30BDF0B50346154660
:1043C000012217E051F82240104605E0461E51F840
:1043D000266041F82060401E002808DD53F8247054
:1043E000461E51F8266053F82660B742EEDC41F8CD
:1043F0002040521CAA42E5DBF0BD000010B586B09B
:104400000446012144F20400FEF724FA4FF4007040
:10441000ADF8140003208DF8160018208DF8170051
:1044200005A91C48FCF7FEFE4FF48060ADF81400AF
:1044300004208DF8170005A91648FCF7F3FE252087
:104440008DF8000003208DF801008DF80200012096
:104450008DF803006846FEF73FF901940020ADF89F
:104460000800ADF80A00ADF80C00ADF810000C2003
:10447000ADF80E0001A90848FEF770FC012240F2D9
:1044800025510548FEF745FC01210348FEF7FEFBD8
:1044900006B010BD000801400038014000000000D7
:1044A00000000000000000000000000000000018F4
:1044B0001818181818080008180000000000003428
:1044C0002424240000000000000000000000000080
:1044D00016247F2424247E242400000000000008E9
:1044E0003E6848681C1612127C1010000000006123
:1044F000D296740810162949C6000000000000007A
:104500003C646438724ACE467F0000000000001808
:10451000181818000000000000000000000000044F
:10452000081810303030301010180C040000002033
:104530001008080C0404040C0818102000000008DF
:104540000A341C6A0800000000000000000000009F
:1045500000001818187F181818000000000000004C
:1045600000000000000000181808300000000000E3
:1045700000000000003C00000000000000000000FF
:1045800000000000000000181800000000000002F9
:1045900006040C0808101020204000000000000055
:1045A0003C6642475B7342663C000000000000002E
:1045B00018784808080808087E000000000000007D
:1045C0003C460606040810207E00000000000000A3
:1045D0007C0606043C0202067C000000000000008D
:1045E0000C1C14246444FF040400000000000000BC
:1045F0007E6060607E0202067C0000000000000019
:104600001E306048764242623C000000000000001C
:104610007E0206040C0818103000000000000000A4
:104620003C6242361C6642423C0000000000000032
:104630003C664242661A0204780000000000000056
:10464000000018180000001818000000000000000A
:1046500000001818000000181808300000000000C2
:10466000000004183060100C06000000000000007C
:10467000000000007E007E0000000000000000003E
:104680000000301804060C1020000000000000306C
:104690001C06060618100010100000000000001C88
:1046A000224141DDB5A5A5AF94C0403C000000000B
:1046B000181C342426627E43C10000000000000064
:1046C0007C4642467C4242427C00000000000000E2
:1046D0001E204040404040603E00000000000000BE
:1046E0007C464243434342467800000000000000FD
:1046F0007E6060607E6060607E0000000000000000
:104700007E6060607E60606060000000000000000D
:104710001E604040CE4242623E00000000000000A9
:10472000424242427E4242424200000000000000FB
:104730007E181818181818187E00000000000000D5
:104740007C04040404040444780000000000000019
:104750004244485070584C444200000000000000A1
:1047600020202020202020203E000000000000000B
:104770006266675F5B5BC1C1C100000000000000B2
:10478000626272525A4A4E46460000000000000023
:104790003C6243C3C3C343623C000000000000000E
:1047A0007C46424246784040400000000000000045
:1047B0003C6243C3C3C343623C180F0000000000C7
:1047C0007C6662667C6C646662000000000000002B
:1047D0003E6040601C0602027C00000000000000F9
:1047E0007F1818181818181818000000000000008A
:1047F00042424242424242623C000000000000004D
:10480000C14342622624341C18000000000000004E
:10481000C1C141495B5B7666660000000000000094
:1048200043663418181C2466C30000000000000012
:10483000C14266341C18181818000000000000005F
:104840007E02040C181020607E0000000000001C96
:1048500010101010101010101010101C000000404C
:104860002020101008080C04060200000000003C84
:104870000C0C0C0C0C0C0C0C0C0C0C3C0000000078
:10488000181C24620000000000000000000000006E
:104890000000000000000000000000FF00000020F9
:1048A00010000000000000000000000000000000F8
:1048B00000003C06023E42467A0000000000004034
:1048C00040405C62424242427C0000000000000026
:1048D00000001E20604060203E000000000000023A
:1048E00002023E62424242663A00000000000000BE
:1048F00000003C62427E40603E0000000000000F6D
:104900001810107E101010101000000000000000A1
:1049100000003F66426658403E43423C0000004073
:1049200040405C62424242424200000000000018E7
:1049300018007808080808087E000000000000043D
:104940000C007C040404040404040C7800000060DF
:104950006060626C7870686462000000000000783B
:1049600008080808080808087E0000000000000089
:104970000000764B4B4B4B4B4B00000000000000FF
:1049800000005C624242424242000000000000001F
:1049900000003C62424342623C0000000000000014
:1049A00000005C62424242427C4040400000000005
:1049B00000003E62424242663A02020200000000EB
:1049C00000006E7263606060600000000000000024
:1049D00000003E20203C06027C0000000000000099
:1049E0001010FE10101010101E000000000000003B
:1049F00000004242424242663A00000000000000CD
:104A00000000434266243418180000000000000033
:104A10000000C1C15B5A5E66660000000000000035
:104A2000000062261C181C26620000000000000026
:104A3000000043426624341C181830E000000000D7
:104A400000007E060C1810207E0000000000000E02
:104A500018101010307010101010180E00000808F8
:104A600008080808080808080808080800000030B6
:104A7000180808080C0E0808080818300000000084
:104A800000000000714B0600000000000000000064
:104A90000000000000000000000000000000000016
:104AA0000000000000000000000000000000000006
:104AB00000000000000000000000000000000000F6
:104AC000000000000000038001800180018001805F
:104AD000018001800180018001800000000003C08E
:104AE00003C0000000000000000000000000000003
:104AF0000000000000000E700E700E700C30000000
:104B000000000000000000000000000000000000A5
:104B10000000000000000000000000000000000095
:104B200000000000000000000618063806307FFE76
:104B30000C300C300C300C307FFE0C601C601860A8
:104B400018600000000000000000000000000000ED
:104B50000000000000C000C00FF83CC831C0318028
:104B60003D801F8003F001F8031C030C031C3FF879
:104B70003FE0070006000000000000000000000009
:104B8000000000001C007E0E630C631863307E6022
:104B900000C001800300077C0EE61CC618C630C6A4
:104BA000607C000000000000000000000000000029
:104BB0000000000000000FE01CF0387038701C602E
:104BC0001FC00F003F8C71CC60EC607C70383CFCE7
:104BD0001FCE0000000000000000000000000000E8
:104BE00000000000000003C001800180018000007F
:104BF00000000000000000000000000000000000B5
:104C000000000000000000000000000000000000A4
:104C100000000000003000E001C001800300070038
:104C2000060006000E000E000E000E000600070033
:104C30000300038001C000E000300000000000001D
:104C4000000000000C0006000380018001C000E0AD
:104C5000006000600070007000700060006000E0A4
:104C600000C00180038006000C000000000000006E
:104C7000000000000000018011881DB803C007E09B
:104C80003DBC018801800000000000000000000021
:104C90000000000000000000000000000000000014
:104CA0000000000000000000000000000180018002
:104CB0000180018001807FFE0180018001800180F0
:104CC00000000000000000000000000000000000E4
:104CD00000000000000000000000000000000000D4
:104CE00000000000000000000000000003C003C03E
:104CF00001C001C003801F00000000000000000090
:104D000000000000000000000000000000000000A3
:104D10000000000000000FF0000000000000000094
:104D20000000000000000000000000000000000083
:104D30000000000000000000000000000000000073
:104D400000000000000000000000000003C003C0DD
:104D500003C0000000000000000000000000000090
:104D6000000000000000001800380030006000E083
:104D700000C001C001800300030006000E000C000B
:104D80001C001800300000000000000000000000BF
:104D900000000000000001800FF01C38381C301C9F
:104DA000707E70EE738E7E0E7C0C300C381C1E787C
:104DB0000FE0000000000000000000000000000004
:104DC000000000000000000007C01FC039C001C083
:104DD00001C001C001C001C001C001C001C03FFC51
:104DE0003FFC000000000000000000000000000088
:104DF00000000000000003801FF018380038001881
:104E000000380038007001E0038007001C003FFC00
:104E10003FFC000000000000000000000000000057
:104E200000000000000007801FF000380038003844
:104E3000003007E007F00038001C001C001820F8C4
:104E40003FE0000000000000000000000000000043
:104E5000000000000000000000F001B00330073047
:104E60000E301C30383070307FFE7FFE0030003056
:104E70000030000000000000000000000000000002
:104E800000000000000000001FF8180018001800C3
:104E900018001FE000F8001C001C001C003800F087
:104EA0001FC0000000000000000000000000000023
:104EB000000000000000000003F80F001C001800B4
:104EC000300037F83C3C300C300C380C381C1E38A5
:104ED0000FF00000000000000000000000000000D3
:104EE00000000000000000003FFC001C001800381B
:104EF0000070006000E001C0018003800700060030
:104F00000E00000000000000000000000000000093
:104F100000000000000003C01FF8381C381C381CBB
:104F20001C380FF007F01C78381C300C381C3C384B
:104F30000FF0000000000000000000000000000072
:104F400000000000000003801FF03838301C701C87
:104F5000700C380C1FFC0FCC001C001800701FE0F8
:104F60001F800000000000000000000000000000A2
:104F7000000000000000000000000000000003C06E
:104F800003C00180000000000000000003C003C057
:104F900003C000000000000000000000000000004E
:104FA000000000000000000000000000000003C03E
:104FB00003C00180000000000000000003C003C027
:104FC00001C001C003800F000000000000000000CD
:104FD000000000000000000000000000003800F0A9
:104FE00001C007001E0038000E00078001C00070DD
:104FF0000030000000000000000000000000000081
:1050000000000000000000000000000000000000A0
:1050100000003FFC000000003FFC3FFC00000000DF
:105020000000000000000000000000000000000080
:105030000000000000000000000000001C000F0045
:10504000038001E00078001C007001E003800E0086
:105050000C00000000000000000000000000000044
:105060000000000000000FC000F0003800380038D9
:10507000003803F0038003000300000000000780F5
:105080000780000000000000000000000000000099
:105090000000000000E007F80C0C18063006700352
:1050A00063F36633C673CC63CC62CC66CCE6C7FCD4
:1050B000E0006000700038101FF0000000000000E9
:1050C000000000000000000003C007E006E00E70D2
:1050D0000E700C301C3818183FFC3FFC700E600E30
:1050E000E0070000000000000000000000000000D9
:1050F00000000000000000003FF03838381C381C69
:1051000038383FF03FF8381C380C380C381C3FF862
:105110003FE0000000000000000000000000000070
:1051200000000000000000E007FC1E04380038000A
:105130003000700070007000300038003C001F9C90
:1051400007FC00000000000000000000000000005C
:1051500000000000000000003FF03078301C300CF0
:10516000300E300E300E300E300E301C30383FF026
:105170003FC0000000000000000000000000000030
:1051800000000000000000001FF8180018001800C0
:1051900018001FF81FF818001800180018001FF852
:1051A0001FF80000000000000000000000000000E8
:1051B00000000000000000001FF818001800180090
:1051C00018001FF81FF81800180018001800180021
:1051D00018000000000000000000000000000000B7
:1051E00000000000000000F007FC1E043800300042
:1051F0007000700070FC700C700C300C380C1F1CB0
:1052000007FC00000000000000000000000000009B
:105210000000000000000000300C300C300C300C9E
:10522000300C3FFC3FFC300C300C300C300C300CA0
:10523000300C000000000000000000000000000032
:1052400000000000000000003FFC018001800180A0
:1052500001800180018001800180018001803FFC8C
:105260003FFC000000000000000000000000000003
:1052700000000000000000001FF00030003000308F
:1052800000300030003000300030003000701DE091
:105290001FC000000000000000000000000000002F
:1052A0000000000000000000381C387038E039C0F1
:1052B0003B803F003F003B8039C038E038703838D1
:1052C000381C00000000000000000000000000008A
:1052D00000000000000000001C001C001C001C005E
:1052E0001C001C001C001C001C001C001C001FFCDF
:1052F0001FFC000000000000000000000000000093
:105300000000000000000000381C7C3C6C3E6E6E0B
:10531000666E66CE63C6638661866006600660065A
:105320006006000000000000000000000000000017
:1053300000000000000000003C0C3C0C3E0C360C51
:10534000330C338C318C31CC30EC306C307C303CD5
:10535000301C000000000000000000000000000001
:1053600000000000000001C00FF81C3C381C700E4B
:10537000700E60066006700E700E700C381C1E7881
:105380000FE000000000000000000000000000002E
:1053900000000000000000003FF0383C381C380CD2
:1053A000380C381C38783FE03800380038003800B6
:1053B00038000000000000000000000000000000B5
:1053C00000000000000001C00FF81C3C381C700EEB
:1053D000700E60066006700E700E700C381C1E7821
:1053E0000FE0018001C000FF003C00000000000051
:1053F00000000000000000003FF03838381838186E
:10540000383838F03FC038E0387038383838381C11
:10541000380E000000000000000000000000000046
:1054200000000000000001E00FF8380038003800EC
:105430003C001F8003F00078001C001C001C387822
:105440003FE000000000000000000000000000003D
:1054500000000000000000007FFE0180018001804C
:105460000180018001800180018001800180018034
:1054700001800000000000000000000000000000AB
:105480000000000000000000300C300C300C300C2C
:10549000300C300C300C300C300C300C381C1C38FC
:1054A0000FF00000000000000000000000000000FD
:1054B0000000000000000000E006700E700E381CB6
:1054C000381C1C181C380C300E70066007E003C036
:1054D00003C0000000000000000000000000000009
:1054E0000000000000000000600660066006600624
:1054F0006186638673C673CE766C366C3C3C3C3CEE
:10550000381C000000000000000000000000000047
:105510000000000000000000301C38181C380E701D
:1055200007E003C003C007E00E701C381838381CB1
:10553000700E0000000000000000000000000000ED
:105540000000000000000000700E700C381C1C38B9
:105550000E70066007E003C00180018001800180B9
:1055600001800000000000000000000000000000BA
:1055700000000000000000003FFC001C003800702C
:1055800000E001C0038007000E000C0018003FFC83
:105590003FFC0000000000000000000000000000D0
:1055A0000000000007F007F00600060006000600F5
:1055B00006000600060006000600060006000600BB
:1055C000060006000600060007F0000000000000CC
:1055D00000000000000018001C000C00060007007E
:1055E00003000380018001C000C000600070003033
:1055F00000380018000C000000000000000000004F
:10560000000000000FE00FE000600060006000603C
:10561000006000600060006000600060006000608A
:1056200000600060006000600FE00000000000000B
:10563000000000000000000003C006C006600C303F
:105640001818301C000000000000000000000000DE
:10565000000000000000000000000000000000004A
:10566000000000000000000000000000000000003A
:10567000000000000000000000000000000000002A
:105680000000000000000000FFFF0000000000001C
:105690000000000000001E00038000000000000069
:1056A00000000000000000000000000000000000FA
:1056B00000000000000000000000000000000000EA
:1056C00000000000000000000000000000001FF0CB
:1056D0001038001C001C0FFC1C1C381C381C3CFC27
:1056E0001FDC0000000000000000000000000000BF
:1056F00000000000000038003800380038003BF897
:105700003E1C3C1C380C380C380C380C381C3C78CF
:105710001FE000000000000000000000000000008A
:10572000000000000000000000000000000007F87A
:105730000E001C0038003800380038001C000F181C
:1057400007F800000000000000000000000000005A
:10575000000000000000001C001C001C001C0FFCCE
:105760001C1C381C301C301C301C301C383C1CFCF1
:105770000F9C00000000000000000000000000007E
:1057800000000000000000000000000000000FF01A
:105790001C38381C300C3FFC3000300038001E0C28
:1057A00007FC0000000000000000000000000000F6
:1057B00000000000003C01FE038003000300030022
:1057C0007FFC7FFC030003000300030003000300D1
:1057D00003000000000000000000000000000000C6
:1057E00000000000000000000000000000000FFEAC
:1057F0001C383818381818381FF03B8030003FF03C
:105800001FFC300E700E381C1FF800000000000056
:1058100000000000000038003800380038003BF875
:105820003E383C1C381C381C381C381C381C381CB2
:10583000381C000000000000000000000000000014
:1058400000000000018003C003C0000000001FC072
:1058500001C001C001C001C001C001C001C001C040
:105860003FFC0000000000000000000000000000FD
:1058700000000000002000700070000000003FF0F9
:105880000070007000700070007000700070007098
:1058900000700070007020E03FC0000000000000B9
:1058A0000000000000001800180018001800183C44
:1058B000187018E01B801F001B8019E01870183842
:1058C000181C0000000000000000000000000000A4
:1058D0000000000000001FC001C001C001C001C0E5
:1058E00001C001C001C001C001C001C001C001C0B0
:1058F0003FFC00000000000000000000000000006D
:1059000000000000000000000000000000006F3CEC
:1059100079EE71CE718E718E718E718E718E718EE7
:10592000718E000000000000000000000000000078
:1059300000000000000000000000000000003BF834
:105940003E383C1C381C381C381C381C381C381C91
:10595000381C0000000000000000000000000000F3
:1059600000000000000000000000000000000FF038
:105970001C3C381C700E700E700E700C381C1E789B
:105980000FE0000000000000000000000000000028
:1059900000000000000000000000000000003BF8D4
:1059A0003E1C3C1C380C380C380C380C381C3C782D
:1059B0003FE03800380038003800000000000000E8
:1059C00000000000000000000000000000000FFCCC
:1059D0001C1C381C301C301C301C301C383C1CFC7F
:1059E0000F9C001C001C001C001C0000000000009C
:1059F000000000000000000000000000000019F896
:105A00001F1C1C0C180E1800180018001800180095
:105A1000180000000000000000000000000000006E
:105A200000000000000000000000000000000FF86F
:105A30001C0018001E000FC001F8001800181838CC
:105A40001FF0000000000000000000000000000047
:105A500000000000000000000600060006007FFCB9
:105A60000600060006000600060006000700078480
:105A700001FC000000000000000000000000000029
:105A80000000000000000000000000000000381CC2
:105A9000381C381C381C381C381C381C383C1CFC82
:105AA0000FDC00000000000000000000000000000B
:105AB0000000000000000000000000000000700C6A
:105AC000381C38181C380C300E70066007E003C014
:105AD00003C0000000000000000000000000000003
